{
  "contractName": "Hasher",
  "abi": [
    {
      "constant": true,
      "inputs": [
        {
          "name": "_c",
          "type": "uint8"
        },
        {
          "name": "_salt",
          "type": "uint256"
        }
      ],
      "name": "hash",
      "outputs": [
        {
          "name": "",
          "type": "bytes32"
        }
      ],
      "payable": false,
      "stateMutability": "view",
      "type": "function"
    }
  ],
  "bytecode": "0x608060405234801561001057600080fd5b50610113806100206000396000f300608060405260043610603f576000357c0100000000000000000000000000000000000000000000000000000000900463ffffffff16806367ef4c13146044575b600080fd5b348015604f57600080fd5b506079600480360381019080803560ff169060200190929190803590602001909291905050506097565b60405180826000191660001916815260200191505060405180910390f35b60008282604051808360ff1660ff167f01000000000000000000000000000000000000000000000000000000000000000281526001018281526020019250505060405180910390209050929150505600a165627a7a72305820a2be0f3530a539ff2fd8743740cb58d250eb4f44d258919f17166ff19dd6717b0029",
  "source": "contract Hasher{\n    /** @dev Give the commitement. Must only be called locally.\n     *  @param _c The move.\n     *  @param _salt The salt to increase entropy.\n     */\n    function hash(uint8 _c, uint256 _salt) constant returns(bytes32) {\n        return keccak256(_c,_salt);\n    }\n}",
  "sourcePath": "/Users/cleogao/Desktop/RPS-game/game-rpsls/contracts/Hasher.sol",
  "compiler": {
    "name": "solc",
    "version": "0.4.26+commit.4563c3fc.Emscripten.clang"
  },
  "schemaVersion": "3.4.9",
  "updatedAt": "2022-11-30T06:41:52.005Z",
  "networkType": "ethereum",
  "devdoc": {
    "methods": {
      "hash(uint8,uint256)": {
        "details": "Give the commitement. Must only be called locally.",
        "params": {
          "_c": "The move.",
          "_salt": "The salt to increase entropy."
        }
      }
    }
  },
  "userdoc": {
    "methods": {}
  }
}