{
  "contractName": "RPS",
  "abi": [
    {
      "constant": true,
      "inputs": [],
      "name": "stake",
      "outputs": [
        {
          "name": "",
          "type": "uint256"
        }
      ],
      "payable": false,
      "stateMutability": "view",
      "type": "function"
    },
    {
      "constant": true,
      "inputs": [],
      "name": "c2",
      "outputs": [
        {
          "name": "",
          "type": "uint8"
        }
      ],
      "payable": false,
      "stateMutability": "view",
      "type": "function"
    },
    {
      "constant": true,
      "inputs": [],
      "name": "c1Hash",
      "outputs": [
        {
          "name": "",
          "type": "bytes32"
        }
      ],
      "payable": false,
      "stateMutability": "view",
      "type": "function"
    },
    {
      "constant": true,
      "inputs": [],
      "name": "j2",
      "outputs": [
        {
          "name": "",
          "type": "address"
        }
      ],
      "payable": false,
      "stateMutability": "view",
      "type": "function"
    },
    {
      "constant": true,
      "inputs": [],
      "name": "lastAction",
      "outputs": [
        {
          "name": "",
          "type": "uint256"
        }
      ],
      "payable": false,
      "stateMutability": "view",
      "type": "function"
    },
    {
      "constant": true,
      "inputs": [],
      "name": "j1",
      "outputs": [
        {
          "name": "",
          "type": "address"
        }
      ],
      "payable": false,
      "stateMutability": "view",
      "type": "function"
    },
    {
      "constant": true,
      "inputs": [],
      "name": "TIMEOUT",
      "outputs": [
        {
          "name": "",
          "type": "uint256"
        }
      ],
      "payable": false,
      "stateMutability": "view",
      "type": "function"
    },
    {
      "inputs": [
        {
          "name": "_c1Hash",
          "type": "bytes32"
        },
        {
          "name": "_j2",
          "type": "address"
        }
      ],
      "payable": true,
      "stateMutability": "payable",
      "type": "constructor"
    },
    {
      "constant": false,
      "inputs": [
        {
          "name": "_c2",
          "type": "uint8"
        }
      ],
      "name": "play",
      "outputs": [],
      "payable": true,
      "stateMutability": "payable",
      "type": "function"
    },
    {
      "constant": false,
      "inputs": [
        {
          "name": "_c1",
          "type": "uint8"
        },
        {
          "name": "_salt",
          "type": "uint256"
        }
      ],
      "name": "solve",
      "outputs": [],
      "payable": false,
      "stateMutability": "nonpayable",
      "type": "function"
    },
    {
      "constant": false,
      "inputs": [],
      "name": "j1Timeout",
      "outputs": [],
      "payable": false,
      "stateMutability": "nonpayable",
      "type": "function"
    },
    {
      "constant": false,
      "inputs": [],
      "name": "j2Timeout",
      "outputs": [],
      "payable": false,
      "stateMutability": "nonpayable",
      "type": "function"
    },
    {
      "constant": true,
      "inputs": [
        {
          "name": "_c1",
          "type": "uint8"
        },
        {
          "name": "_c2",
          "type": "uint8"
        }
      ],
      "name": "win",
      "outputs": [
        {
          "name": "w",
          "type": "bool"
        }
      ],
      "payable": false,
      "stateMutability": "view",
      "type": "function"
    }
  ],
  "bytecode": "0x608060405261012c600555604051604080610aaf833981018060405281019080805190602001909291908051906020019092919050505034600481905550336000806101000a81548173ffffffffffffffffffffffffffffffffffffffff021916908373ffffffffffffffffffffffffffffffffffffffff16021790555080600160006101000a81548173ffffffffffffffffffffffffffffffffffffffff021916908373ffffffffffffffffffffffffffffffffffffffff16021790555081600281600019169055504260068190555050506109ce806100e16000396000f3006080604052600436106100ba576000357c0100000000000000000000000000000000000000000000000000000000900463ffffffff1680630c4395b9146100bf578063294914a4146101145780633a4b66f11461012b57806348e257cb146101565780634d03e3d21461018f57806353a04b05146101c257806380985af9146101e557806389f71d531461023c578063a5ddec7c14610267578063c37597c6146102a1578063c8391142146102f8578063f56f48f21461030f575b600080fd5b3480156100cb57600080fd5b506100fa600480360381019080803560ff169060200190929190803560ff16906020019092919050505061033a565b604051808215151515815260200191505060405180910390f35b34801561012057600080fd5b50610129610403565b005b34801561013757600080fd5b506101406104ae565b6040518082815260200191505060405180910390f35b34801561016257600080fd5b5061016b6104b4565b6040518082600581111561017b57fe5b60ff16815260200191505060405180910390f35b34801561019b57600080fd5b506101a46104c7565b60405180826000191660001916815260200191505060405180910390f35b6101e3600480360381019080803560ff1690602001909291905050506104cd565b005b3480156101f157600080fd5b506101fa6105c0565b604051808273ffffffffffffffffffffffffffffffffffffffff1673ffffffffffffffffffffffffffffffffffffffff16815260200191505060405180910390f35b34801561024857600080fd5b506102516105e6565b6040518082815260200191505060405180910390f35b34801561027357600080fd5b5061029f600480360381019080803560ff169060200190929190803590602001909291905050506105ec565b005b3480156102ad57600080fd5b506102b66108c7565b604051808273ffffffffffffffffffffffffffffffffffffffff1673ffffffffffffffffffffffffffffffffffffffff16815260200191505060405180910390f35b34801561030457600080fd5b5061030d6108ec565b005b34801561031b57600080fd5b5061032461099c565b6040518082815260200191505060405180910390f35b600081600581111561034857fe5b83600581111561035457fe5b141561036357600090506103fd565b6000600581111561037057fe5b83600581111561037c57fe5b141561038b57600090506103fd565b600282600581111561039957fe5b8115156103a257fe5b0660028460058111156103b157fe5b8115156103ba57fe5b0614156103e1578160058111156103cd57fe5b8360058111156103d957fe5b1090506103fd565b8160058111156103ed57fe5b8360058111156103f957fe5b1190505b92915050565b6000600581111561041057fe5b600360009054906101000a900460ff16600581111561042b57fe5b14151561043757600080fd5b600554600654014211151561044b57600080fd5b6000809054906101000a900473ffffffffffffffffffffffffffffffffffffffff1673ffffffffffffffffffffffffffffffffffffffff166108fc6004549081150290604051600060405180830381858888f19350505050506000600481905550565b60045481565b600360009054906101000a900460ff1681565b60025481565b600060058111156104da57fe5b600360009054906101000a900460ff1660058111156104f557fe5b14151561050157600080fd5b6000600581111561050e57fe5b81600581111561051a57fe5b1415151561052757600080fd5b6004543414151561053757600080fd5b600160009054906101000a900473ffffffffffffffffffffffffffffffffffffffff1673ffffffffffffffffffffffffffffffffffffffff163373ffffffffffffffffffffffffffffffffffffffff1614151561059357600080fd5b80600360006101000a81548160ff021916908360058111156105b157fe5b02179055504260068190555050565b600160009054906101000a900473ffffffffffffffffffffffffffffffffffffffff1681565b60065481565b600060058111156105f957fe5b82600581111561060557fe5b1415151561061257600080fd5b6000600581111561061f57fe5b600360009054906101000a900460ff16600581111561063a57fe5b1415151561064757600080fd5b6000809054906101000a900473ffffffffffffffffffffffffffffffffffffffff1673ffffffffffffffffffffffffffffffffffffffff163373ffffffffffffffffffffffffffffffffffffffff161415156106a257600080fd5b600254600019168282604051808360058111156106bb57fe5b60ff167f01000000000000000000000000000000000000000000000000000000000000000281526001018281526020019250505060405180910390206000191614151561070757600080fd5b61072082600360009054906101000a900460ff1661033a565b15610786576000809054906101000a900473ffffffffffffffffffffffffffffffffffffffff1673ffffffffffffffffffffffffffffffffffffffff166108fc6004546002029081150290604051600060405180830381858888f19350505050506108bb565b61079f600360009054906101000a900460ff168361033a565b1561080657600160009054906101000a900473ffffffffffffffffffffffffffffffffffffffff1673ffffffffffffffffffffffffffffffffffffffff166108fc6004546002029081150290604051600060405180830381858888f19350505050506108ba565b6000809054906101000a900473ffffffffffffffffffffffffffffffffffffffff1673ffffffffffffffffffffffffffffffffffffffff166108fc6004549081150290604051600060405180830381858888f1935050505050600160009054906101000a900473ffffffffffffffffffffffffffffffffffffffff1673ffffffffffffffffffffffffffffffffffffffff166108fc6004549081150290604051600060405180830381858888f19350505050505b5b60006004819055505050565b6000809054906101000a900473ffffffffffffffffffffffffffffffffffffffff1681565b600060058111156108f957fe5b600360009054906101000a900460ff16600581111561091457fe5b1415151561092157600080fd5b600554600654014211151561093557600080fd5b600160009054906101000a900473ffffffffffffffffffffffffffffffffffffffff1673ffffffffffffffffffffffffffffffffffffffff166108fc6004546002029081150290604051600060405180830381858888f19350505050506000600481905550565b600554815600a165627a7a72305820767a27bd45bf2e26352555d39770cecd0ffe5fc7508fd54c5bd823b00ac3fdfa0029",
  "source": "pragma solidity ^0.4.26;\n\ncontract RPS{\n    address public j1; // The first player creating the contract.\n    address public j2; // The second player.\n    enum Move {Null, Rock, Paper, Scissors, Spock, Lizard} // Possible moves. Note that if the parity of the moves is the same the lower one wins, otherwise the higher one. \n    bytes32 public c1Hash; // Commitment of j1.\n    Move public c2; // Move of j2. Move.Null before he played.\n    uint256 public stake; // Amout bet by each party.\n    uint256 public TIMEOUT = 5 minutes; // If some party takes more than TIMEOUT to respond, the other can call TIMEOUT to win.\n    uint256 public lastAction; // The time of the last action. Usefull to determine if someone has timed out.\n    \n    /** @dev Constructor. Must send the amount at stake when creating the contract. Note that the move and salt must be saved.\n     *  @param _c1Hash Must be equal to keccak256(c1,salt) where c1 is the move of the j1.\n     */\n    function RPS(bytes32 _c1Hash, address _j2) payable {\n        stake = msg.value; // La mise correspond à la quantité d'ethers envoyés.\n        j1=msg.sender;\n        j2=_j2;\n        c1Hash=_c1Hash;\n        lastAction=now;\n    }\n    \n    /** @dev To be called by j2 and provided stake.\n     *  @param _c2 The move submitted by j2.\n     */\n    function play(Move _c2) payable {\n        require(c2==Move.Null); // J2 has not played yet.\n        require(_c2!=Move.Null); // A move is selected.\n        require(msg.value==stake); // J2 has paid the stake.\n        require(msg.sender==j2); // Only j2 can call this function.\n            \n        c2=_c2;\n        lastAction=now;\n    }\n    \n    /** @dev To be called by j1. Reveal the move and send the ETH to the winning party or split them.\n     *  @param _c1 The move played by j1.\n     *  @param _salt The salt used when submitting the commitment when the constructor was called.\n     */\n    function solve(Move _c1, uint256 _salt) {\n        require(_c1!=Move.Null); // J1 should have made a valid move.\n        require(c2!=Move.Null); // J2 must have played.\n        \n        require(msg.sender==j1); // J1 can call this.\n        require(keccak256(_c1,_salt)==c1Hash); // Verify the value is the commited one.\n        \n        // If j1 or j2 throws at fallback it won't get funds and that is his fault.\n        // Despite what the warnings say, we should not use transfer as a throwing fallback would be able to block the contract, in case of tie.\n        if (win(_c1,c2))\n            j1.send(2*stake);\n        else if (win(c2,_c1))\n            j2.send(2*stake);\n        else {\n            j1.send(stake);\n            j2.send(stake);\n        }\n        stake=0;\n    }\n    \n    /** @dev Let j2 get the funds back if j1 did not play.\n     */\n    function j1Timeout() {\n        require(c2!=Move.Null); // J2 already played.\n        require(now > lastAction + TIMEOUT); // Timeout time has passed.\n        j2.send(2*stake);\n        stake=0;\n    }\n    \n    /** @dev Let j1 take back the funds if j2 never play.\n     */\n    function j2Timeout() {\n        require(c2==Move.Null); // J2 has not played.\n        require(now > lastAction + TIMEOUT); // Timeout time has passed.\n        j1.send(stake);\n        stake=0;\n    }\n    \n    /** @dev Is this move winning over the other.\n     *  @param _c1 The first move.\n     *  @param _c2 The move the first move is considered again.\n     *  @return w True if c1 beats c2. False if c1 is beaten by c2 or in case of tie.\n     */\n    function win(Move _c1, Move _c2) constant returns (bool w) {\n        if (_c1 == _c2)\n            return false; // They played the same so no winner.\n        else if (_c1==Move.Null)\n            return false; // They did not play.\n        else if (uint(_c1)%2==uint(_c2)%2) \n            return (_c1<_c2);\n        else\n            return (_c1>_c2);\n    }\n    \n}\n\n\n",
  "sourcePath": "/Users/cleogao/Desktop/RPS-game/game-rpsls/contracts/RPS.sol",
  "compiler": {
    "name": "solc",
    "version": "0.4.26+commit.4563c3fc.Emscripten.clang"
  },
  "schemaVersion": "3.4.9",
  "updatedAt": "2022-11-30T06:41:51.998Z",
  "networkType": "ethereum",
  "devdoc": {
    "methods": {
      "j1Timeout()": {
        "details": "Let j2 get the funds back if j1 did not play."
      },
      "j2Timeout()": {
        "details": "Let j1 take back the funds if j2 never play."
      },
      "play(uint8)": {
        "details": "To be called by j2 and provided stake.",
        "params": {
          "_c2": "The move submitted by j2."
        }
      },
      "solve(uint8,uint256)": {
        "details": "To be called by j1. Reveal the move and send the ETH to the winning party or split them.",
        "params": {
          "_c1": "The move played by j1.",
          "_salt": "The salt used when submitting the commitment when the constructor was called."
        }
      },
      "win(uint8,uint8)": {
        "details": "Is this move winning over the other.",
        "params": {
          "_c1": "The first move.",
          "_c2": "The move the first move is considered again."
        },
        "return": "w True if c1 beats c2. False if c1 is beaten by c2 or in case of tie."
      }
    }
  },
  "userdoc": {
    "methods": {}
  }
}